{
  "contractName": "DAO",
  "abi": [
    {
      "inputs": [
        {
          "internalType": "uint256",
          "name": "contributionTime",
          "type": "uint256"
        },
        {
          "internalType": "uint256",
          "name": "_voteTime",
          "type": "uint256"
        },
        {
          "internalType": "uint256",
          "name": "_quorum",
          "type": "uint256"
        }
      ],
      "stateMutability": "nonpayable",
      "type": "constructor"
    },
    {
      "inputs": [],
      "name": "admin",
      "outputs": [
        {
          "internalType": "address",
          "name": "",
          "type": "address"
        }
      ],
      "stateMutability": "view",
      "type": "function",
      "constant": true
    },
    {
      "inputs": [],
      "name": "availableFunds",
      "outputs": [
        {
          "internalType": "uint256",
          "name": "",
          "type": "uint256"
        }
      ],
      "stateMutability": "view",
      "type": "function",
      "constant": true
    },
    {
      "inputs": [],
      "name": "contributionEnd",
      "outputs": [
        {
          "internalType": "uint256",
          "name": "",
          "type": "uint256"
        }
      ],
      "stateMutability": "view",
      "type": "function",
      "constant": true
    },
    {
      "inputs": [
        {
          "internalType": "address",
          "name": "",
          "type": "address"
        }
      ],
      "name": "investors",
      "outputs": [
        {
          "internalType": "bool",
          "name": "",
          "type": "bool"
        }
      ],
      "stateMutability": "view",
      "type": "function",
      "constant": true
    },
    {
      "inputs": [],
      "name": "nextProposalId",
      "outputs": [
        {
          "internalType": "uint256",
          "name": "",
          "type": "uint256"
        }
      ],
      "stateMutability": "view",
      "type": "function",
      "constant": true
    },
    {
      "inputs": [
        {
          "internalType": "uint256",
          "name": "",
          "type": "uint256"
        }
      ],
      "name": "proposals",
      "outputs": [
        {
          "internalType": "uint256",
          "name": "id",
          "type": "uint256"
        },
        {
          "internalType": "string",
          "name": "name",
          "type": "string"
        },
        {
          "internalType": "uint256",
          "name": "amount",
          "type": "uint256"
        },
        {
          "internalType": "address payable",
          "name": "recipient",
          "type": "address"
        },
        {
          "internalType": "uint256",
          "name": "votes",
          "type": "uint256"
        },
        {
          "internalType": "uint256",
          "name": "end",
          "type": "uint256"
        },
        {
          "internalType": "bool",
          "name": "executed",
          "type": "bool"
        }
      ],
      "stateMutability": "view",
      "type": "function",
      "constant": true
    },
    {
      "inputs": [],
      "name": "quorum",
      "outputs": [
        {
          "internalType": "uint256",
          "name": "",
          "type": "uint256"
        }
      ],
      "stateMutability": "view",
      "type": "function",
      "constant": true
    },
    {
      "inputs": [
        {
          "internalType": "address",
          "name": "",
          "type": "address"
        }
      ],
      "name": "shares",
      "outputs": [
        {
          "internalType": "uint256",
          "name": "",
          "type": "uint256"
        }
      ],
      "stateMutability": "view",
      "type": "function",
      "constant": true
    },
    {
      "inputs": [],
      "name": "totalShares",
      "outputs": [
        {
          "internalType": "uint256",
          "name": "",
          "type": "uint256"
        }
      ],
      "stateMutability": "view",
      "type": "function",
      "constant": true
    },
    {
      "inputs": [],
      "name": "voteTime",
      "outputs": [
        {
          "internalType": "uint256",
          "name": "",
          "type": "uint256"
        }
      ],
      "stateMutability": "view",
      "type": "function",
      "constant": true
    },
    {
      "inputs": [
        {
          "internalType": "address",
          "name": "",
          "type": "address"
        },
        {
          "internalType": "uint256",
          "name": "",
          "type": "uint256"
        }
      ],
      "name": "votes",
      "outputs": [
        {
          "internalType": "bool",
          "name": "",
          "type": "bool"
        }
      ],
      "stateMutability": "view",
      "type": "function",
      "constant": true
    },
    {
      "stateMutability": "payable",
      "type": "receive",
      "payable": true
    },
    {
      "inputs": [],
      "name": "contribute",
      "outputs": [],
      "stateMutability": "payable",
      "type": "function",
      "payable": true
    },
    {
      "inputs": [
        {
          "internalType": "uint256",
          "name": "amount",
          "type": "uint256"
        }
      ],
      "name": "redeemShare",
      "outputs": [],
      "stateMutability": "nonpayable",
      "type": "function"
    },
    {
      "inputs": [
        {
          "internalType": "uint256",
          "name": "amount",
          "type": "uint256"
        },
        {
          "internalType": "address",
          "name": "to",
          "type": "address"
        }
      ],
      "name": "transferShare",
      "outputs": [],
      "stateMutability": "nonpayable",
      "type": "function"
    },
    {
      "inputs": [
        {
          "internalType": "string",
          "name": "name",
          "type": "string"
        },
        {
          "internalType": "uint256",
          "name": "amount",
          "type": "uint256"
        },
        {
          "internalType": "address payable",
          "name": "recipient",
          "type": "address"
        }
      ],
      "name": "createProposal",
      "outputs": [],
      "stateMutability": "nonpayable",
      "type": "function"
    },
    {
      "inputs": [
        {
          "internalType": "uint256",
          "name": "proposalId",
          "type": "uint256"
        }
      ],
      "name": "vote",
      "outputs": [],
      "stateMutability": "nonpayable",
      "type": "function"
    },
    {
      "inputs": [
        {
          "internalType": "uint256",
          "name": "proposalId",
          "type": "uint256"
        }
      ],
      "name": "executeProposal",
      "outputs": [],
      "stateMutability": "nonpayable",
      "type": "function"
    },
    {
      "inputs": [
        {
          "internalType": "uint256",
          "name": "amount",
          "type": "uint256"
        },
        {
          "internalType": "address payable",
          "name": "to",
          "type": "address"
        }
      ],
      "name": "withdrawEther",
      "outputs": [],
      "stateMutability": "nonpayable",
      "type": "function"
    }
  ],
  "bytecode": "0x608060405234801561001057600080fd5b5060405161136838038061136883398101604081905261002f916100bd565b60008111801561003f5750606481105b61008f5760405162461bcd60e51b815260206004820181905260248201527f71756f72756d206d757374206265206265747765656e203020616e6420313030604482015260640160405180910390fd5b61009983426100eb565b60065560089190915560095550600a80546001600160a01b03191633179055610111565b6000806000606084860312156100d257600080fd5b8351925060208401519150604084015190509250925092565b6000821982111561010c57634e487b7160e01b600052601160045260246000fd5b500190565b611248806101206000396000f3fe60806040526004361061012d5760003560e01c80636f7bc9be116100a5578063ce56c45411610074578063d151b51611610059578063d151b51614610372578063d7bb99ba14610388578063f851a4401461039057600080fd5b8063ce56c45414610325578063ce7c2ac21461034557600080fd5b80636f7bc9be14610274578063868643df146102b45780639f2524ee146102d4578063bcf93dd61461030f57600080fd5b80631703a018116100fc5780633a98ef39116100e15780633a98ef391461022857806346fcff4c1461023e5780636ac1e01f1461025457600080fd5b80631703a018146101ee5780632ab09d141461021257600080fd5b80630121b93f14610150578063013cf08b14610172578063039383e6146101ae5780630d61b519146101ce57600080fd5b3661014b57346005600082825461014491906110e8565b9091555050005b600080fd5b34801561015c57600080fd5b5061017061016b366004611004565b6103c8565b005b34801561017e57600080fd5b5061019261018d366004611004565b610595565b6040516101a5979695949392919061104d565b60405180910390f35b3480156101ba57600080fd5b506101706101c936600461101d565b610666565b3480156101da57600080fd5b506101706101e9366004611004565b61073b565b3480156101fa57600080fd5b5061020460095481565b6040519081526020016101a5565b34801561021e57600080fd5b5061020460075481565b34801561023457600080fd5b5061020460045481565b34801561024a57600080fd5b5061020460055481565b34801561026057600080fd5b5061017061026f366004610f39565b61095d565b34801561028057600080fd5b506102a461028f366004610ee9565b60006020819052908152604090205460ff1681565b60405190151581526020016101a5565b3480156102c057600080fd5b506101706102cf366004611004565b610b3a565b3480156102e057600080fd5b506102a46102ef366004610f0d565b600260209081526000928352604080842090915290825290205460ff1681565b34801561031b57600080fd5b5061020460085481565b34801561033157600080fd5b5061017061034036600461101d565b610c55565b34801561035157600080fd5b50610204610360366004610ee9565b60016020526000908152604090205481565b34801561037e57600080fd5b5061020460065481565b610170610cb9565b34801561039c57600080fd5b50600a546103b0906001600160a01b031681565b6040516001600160a01b0390911681526020016101a5565b3360009081526020819052604090205460ff1615156001146104315760405162461bcd60e51b815260206004820152600e60248201527f6f6e6c7920696e766573746f727300000000000000000000000000000000000060448201526064015b60405180910390fd5b6000818152600360209081526040808320338452600283528184208585529092529091205460ff16156104cc5760405162461bcd60e51b815260206004820152602a60248201527f696e766573746f722063616e206f6e6c7920766f7465206f6e636520666f722060448201527f612070726f706f73616c000000000000000000000000000000000000000000006064820152608401610428565b806005015442106105455760405162461bcd60e51b815260206004820152602560248201527f63616e206f6e6c7920766f746520756e74696c2070726f706f73616c20656e6460448201527f20646174650000000000000000000000000000000000000000000000000000006064820152608401610428565b3360008181526002602090815260408083208684528252808320805460ff19166001908117909155938352929052908120546004830180549192909161058c9084906110e8565b90915550505050565b600360205260009081526040902080546001820180549192916105b790611158565b80601f01602080910402602001604051908101604052809291908181526020018280546105e390611158565b80156106305780601f1061060557610100808354040283529160200191610630565b820191906000526020600020905b81548152906001019060200180831161061357829003601f168201915b5050506002840154600385015460048601546005870154600690970154959692956001600160a01b039092169450925060ff1687565b336000908152600160205260409020548211156106c55760405162461bcd60e51b815260206004820152601160248201527f6e6f7420656e6f756768207368617265730000000000000000000000000000006044820152606401610428565b33600090815260016020526040812080548492906106e4908490611141565b90915550506001600160a01b038116600090815260016020526040812080548492906107119084906110e8565b90915550506001600160a01b03166000908152602081905260409020805460ff1916600117905550565b600a546001600160a01b031633146107955760405162461bcd60e51b815260206004820152600a60248201527f6f6e6c792061646d696e000000000000000000000000000000000000000000006044820152606401610428565b6000818152600360205260409020600581015442101561081d5760405162461bcd60e51b815260206004820152602760248201527f63616e6e6f7420657865637574652070726f706f73616c206265666f7265206560448201527f6e642064617465000000000000000000000000000000000000000000000000006064820152608401610428565b600681015460ff16156108985760405162461bcd60e51b815260206004820152602860248201527f63616e6e6f7420657865637574652070726f706f73616c20616c72656164792060448201527f65786563757465640000000000000000000000000000000000000000000000006064820152608401610428565b600954600454826004015460646108af9190611122565b6108b99190611100565b101561092d5760405162461bcd60e51b815260206004820152603160248201527f63616e6e6f7420657865637574652070726f706f73616c207769746820766f7460448201527f657320232062656c6f772071756f72756d0000000000000000000000000000006064820152608401610428565b60068101805460ff191660011790556002810154600382015461095991906001600160a01b0316610d9c565b5050565b3360009081526020819052604090205460ff1615156001146109c15760405162461bcd60e51b815260206004820152600e60248201527f6f6e6c7920696e766573746f72730000000000000000000000000000000000006044820152606401610428565b816005541015610a135760405162461bcd60e51b815260206004820152600e60248201527f616d6f756e7420746f6f206269670000000000000000000000000000000000006044820152606401610428565b6040518060e001604052806007548152602001848152602001838152602001826001600160a01b031681526020016000815260200160085442610a5691906110e8565b81526000602091820181905260075481526003825260409020825181558282015180519192610a8d92600185019290910190610e40565b506040820151600282015560608201516003820180547fffffffffffffffffffffffff0000000000000000000000000000000000000000166001600160a01b039092169190911790556080820151600482015560a082015160058083019190915560c0909201516006909101805460ff19169115159190911790558054839190600090610b1b908490611141565b909155505060078054906000610b3083611193565b9190505550505050565b33600090815260016020526040902054811115610b995760405162461bcd60e51b815260206004820152601160248201527f6e6f7420656e6f756768207368617265730000000000000000000000000000006044820152606401610428565b806005541015610beb5760405162461bcd60e51b815260206004820152601a60248201527f6e6f7420656e6f75676820617661696c61626c652066756e64730000000000006044820152606401610428565b3360009081526001602052604081208054839290610c0a908490611141565b925050819055508060056000828254610c239190611141565b9091555050604051339082156108fc029083906000818181858888f19350505050158015610959573d6000803e3d6000fd5b600a546001600160a01b03163314610caf5760405162461bcd60e51b815260206004820152600a60248201527f6f6e6c792061646d696e000000000000000000000000000000000000000000006044820152606401610428565b6109598282610d9c565b6006544210610d305760405162461bcd60e51b815260206004820152602760248201527f63616e6e6f7420636f6e7472696275746520616674657220636f6e747269627560448201527f74696f6e456e64000000000000000000000000000000000000000000000000006064820152608401610428565b33600090815260208181526040808320805460ff1916600190811790915590915281208054349290610d639084906110e8565b925050819055503460046000828254610d7c91906110e8565b925050819055503460056000828254610d9591906110e8565b9091555050565b600554821115610dee5760405162461bcd60e51b815260206004820152601960248201527f6e6f7420656e6f75676820617661696c61626c6546756e6473000000000000006044820152606401610428565b8160056000828254610e009190611141565b90915550506040516001600160a01b0382169083156108fc029084906000818181858888f19350505050158015610e3b573d6000803e3d6000fd5b505050565b828054610e4c90611158565b90600052602060002090601f016020900481019282610e6e5760008555610eb4565b82601f10610e8757805160ff1916838001178555610eb4565b82800160010185558215610eb4579182015b82811115610eb4578251825591602001919060010190610e99565b50610ec0929150610ec4565b5090565b5b80821115610ec05760008155600101610ec5565b8035610ee4816111da565b919050565b600060208284031215610efb57600080fd5b8135610f06816111da565b9392505050565b60008060408385031215610f2057600080fd5b8235610f2b816111da565b946020939093013593505050565b600080600060608486031215610f4e57600080fd5b833567ffffffffffffffff80821115610f6657600080fd5b818601915086601f830112610f7a57600080fd5b813581811115610f8c57610f8c6111c4565b604051601f8201601f19908116603f01168101908382118183101715610fb457610fb46111c4565b81604052828152896020848701011115610fcd57600080fd5b82602086016020830137600060208483010152809750505050505060208401359150610ffb60408501610ed9565b90509250925092565b60006020828403121561101657600080fd5b5035919050565b6000806040838503121561103057600080fd5b823591506020830135611042816111da565b809150509250929050565b8781526000602060e08184015288518060e085015260005b81811015611082578a810183015185820161010001528201611065565b8181111561109557600061010083870101525b50604084018990526001600160a01b0388166060850152601f01601f191683016101000191506110c29050565b8460808301528360a08301526110dc60c083018415159052565b98975050505050505050565b600082198211156110fb576110fb6111ae565b500190565b60008261111d57634e487b7160e01b600052601260045260246000fd5b500490565b600081600019048311821515161561113c5761113c6111ae565b500290565b600082821015611153576111536111ae565b500390565b600181811c9082168061116c57607f821691505b6020821081141561118d57634e487b7160e01b600052602260045260246000fd5b50919050565b60006000198214156111a7576111a76111ae565b5060010190565b634e487b7160e01b600052601160045260246000fd5b634e487b7160e01b600052604160045260246000fd5b6001600160a01b03811681146111ef57600080fd5b5056fea264697066735822122029b46023d8bff79f416f467544d138d23a30d89f2657deab62e91299c10a55dd64736f6c637822302e382e352d63692e323032312e352e31302b636f6d6d69742e36343331343065320053",
  "immutableReferences": {},
  "source": "// SPDX-License-Identifier: MIT\npragma solidity ^0.8.4;\n\n/**\n * DAO contract:\n * 1. Collects investors money (ether) & allocate shares\n * 2. Keep track of investor contributions with shares\n * 3. Allow investors to transfer shares\n * 4. allow investment proposals to be created and voted\n * 5. execute successful investment proposals (i.e send money)\n */\n\ncontract DAO {\n  struct Proposal {\n    uint id;\n    string name;\n    uint amount;\n    address payable recipient;\n    uint votes;\n    uint end;\n    bool executed;\n  }\n\n  mapping(address => bool) public investors;\n  mapping(address => uint) public shares;\n  mapping(address => mapping(uint => bool)) public votes;\n  mapping(uint => Proposal) public proposals;\n  uint public totalShares;\n  uint public availableFunds;\n  uint public contributionEnd;\n  uint public nextProposalId;\n  uint public voteTime;\n  uint public quorum;\n  address public admin;\n\n  constructor(\n    uint contributionTime, \n    uint _voteTime,\n    uint _quorum) \n     {\n    require(_quorum > 0 && _quorum < 100, 'quorum must be between 0 and 100');\n    contributionEnd = block.timestamp + contributionTime;\n    voteTime = _voteTime;\n    quorum = _quorum;\n    admin = msg.sender;\n  }\n\n  function contribute() payable external {\n    require(block.timestamp < contributionEnd, 'cannot contribute after contributionEnd');\n    investors[msg.sender] = true;\n    shares[msg.sender] += msg.value;\n    totalShares += msg.value;\n    availableFunds += msg.value;\n  }\n\n  function redeemShare(uint amount) external {\n    require(shares[msg.sender] >= amount, 'not enough shares');\n    require(availableFunds >= amount, 'not enough available funds');\n    shares[msg.sender] -= amount;\n    availableFunds -= amount;\n    payable(msg.sender).transfer(amount);\n  }\n    \n  function transferShare(uint amount, address to) external {\n    require(shares[msg.sender] >= amount, 'not enough shares');\n    shares[msg.sender] -= amount;\n    shares[to] += amount;\n    investors[to] = true;\n  }\n\n  function createProposal(\n    string memory name,\n    uint amount,\n    address payable recipient) \n    public \n    onlyInvestors() {\n    require(availableFunds >= amount, 'amount too big');\n    proposals[nextProposalId] = Proposal(\n      nextProposalId,\n      name,\n      amount,\n      recipient,\n      0,\n      block.timestamp + voteTime,\n      false\n    );\n    availableFunds -= amount;\n    nextProposalId++;\n  }\n\n  function vote(uint proposalId) external onlyInvestors() {\n    Proposal storage proposal = proposals[proposalId];\n    require(votes[msg.sender][proposalId] == false, 'investor can only vote once for a proposal');\n    require(block.timestamp < proposal.end, 'can only vote until proposal end date');\n    votes[msg.sender][proposalId] = true;\n    proposal.votes += shares[msg.sender];\n  }\n\n  function executeProposal(uint proposalId) external onlyAdmin() {\n    Proposal storage proposal = proposals[proposalId];\n    require(block.timestamp >= proposal.end, 'cannot execute proposal before end date');\n    require(proposal.executed == false, 'cannot execute proposal already executed');\n    //BUG 1: Because of integer division,\n    //the require condition failed even when we had enough votes\n    //require((proposal.votes / totalShares) * 100 >= quorum, 'cannot execute proposal with votes # below quorum');\n    require(((proposal.votes * 100) / totalShares) >= quorum, 'cannot execute proposal with votes # below quorum');\n    //BUG2: Added this missing code, otherwise can execute same proposal twice\n    proposal.executed = true;\n    _transferEther(proposal.amount, proposal.recipient);\n  }\n\n  function withdrawEther(uint amount, address payable to) external onlyAdmin() {\n    _transferEther(amount, to);\n  }\n  \n  function _transferEther(uint amount, address payable to) internal {\n    require(amount <= availableFunds, 'not enough availableFunds');\n    availableFunds -= amount;\n    to.transfer(amount);\n  }\n\n  //For ether returns of proposal investments\n   receive()  external payable { \n    availableFunds += msg.value;\n  }\n\n  modifier onlyInvestors() {\n    require(investors[msg.sender] == true, 'only investors');\n    _;\n  }\n\n  modifier onlyAdmin() {\n    require(msg.sender == admin, 'only admin');\n    _;\n  }\n}\n",
  "sourcePath": "/Users/charry/nft/eattheblocks/dapp-30/day15-dao/sc/contracts/DAO.sol",
  "compiler": {
    "name": "solc",
    "version": "0.8.5-ci.2021.5.10+commit.643140e2.Emscripten.clang"
  },
  "schemaVersion": "3.4.14",
  "updatedAt": "2023-10-19T19:36:20.348Z",
  "networkType": "ethereum",
  "devdoc": {
    "kind": "dev",
    "methods": {},
    "version": 1
  },
  "userdoc": {
    "kind": "user",
    "methods": {},
    "notice": "DAO contract: 1. Collects investors money (ether) & allocate shares 2. Keep track of investor contributions with shares 3. Allow investors to transfer shares 4. allow investment proposals to be created and voted 5. execute successful investment proposals (i.e send money)",
    "version": 1
  }
}