{
  "contractName": "DAO2",
  "abi": [
    {
      "inputs": [
        {
          "internalType": "uint256",
          "name": "contributionTime",
          "type": "uint256"
        }
      ],
      "stateMutability": "nonpayable",
      "type": "constructor"
    },
    {
      "inputs": [],
      "name": "availableFunds",
      "outputs": [
        {
          "internalType": "uint256",
          "name": "",
          "type": "uint256"
        }
      ],
      "stateMutability": "view",
      "type": "function"
    },
    {
      "inputs": [],
      "name": "contributionEnd",
      "outputs": [
        {
          "internalType": "uint256",
          "name": "",
          "type": "uint256"
        }
      ],
      "stateMutability": "view",
      "type": "function"
    },
    {
      "inputs": [
        {
          "internalType": "address",
          "name": "",
          "type": "address"
        }
      ],
      "name": "investors",
      "outputs": [
        {
          "internalType": "bool",
          "name": "",
          "type": "bool"
        }
      ],
      "stateMutability": "view",
      "type": "function"
    },
    {
      "inputs": [
        {
          "internalType": "address",
          "name": "",
          "type": "address"
        }
      ],
      "name": "shares",
      "outputs": [
        {
          "internalType": "uint256",
          "name": "",
          "type": "uint256"
        }
      ],
      "stateMutability": "view",
      "type": "function"
    },
    {
      "inputs": [],
      "name": "totalShares",
      "outputs": [
        {
          "internalType": "uint256",
          "name": "",
          "type": "uint256"
        }
      ],
      "stateMutability": "view",
      "type": "function"
    },
    {
      "inputs": [],
      "name": "contribute",
      "outputs": [],
      "stateMutability": "payable",
      "type": "function"
    }
  ],
  "bytecode": "0x608060405234801561001057600080fd5b506040516103b73803806103b783398101604081905261002f91610042565b610039814261005b565b60045550610081565b60006020828403121561005457600080fd5b5051919050565b6000821982111561007c57634e487b7160e01b600052601160045260246000fd5b500190565b610327806100906000396000f3fe6080604052600436106100655760003560e01c8063ce7c2ac211610043578063ce7c2ac2146100e9578063d151b51614610116578063d7bb99ba1461012c57600080fd5b80633a98ef391461006a57806346fcff4c146100935780636f7bc9be146100a9575b600080fd5b34801561007657600080fd5b5061008060025481565b6040519081526020015b60405180910390f35b34801561009f57600080fd5b5061008060035481565b3480156100b557600080fd5b506100d96100c4366004610255565b60006020819052908152604090205460ff1681565b604051901515815260200161008a565b3480156100f557600080fd5b50610080610104366004610255565b60016020526000908152604090205481565b34801561012257600080fd5b5061008060045481565b610134610136565b005b60045442106101cb576040517f08c379a000000000000000000000000000000000000000000000000000000000815260206004820152602760248201527f63616e6e6f7420636f6e7472696275746520616674657220636f6e747269627560448201527f74696f6e456e6400000000000000000000000000000000000000000000000000606482015260840160405180910390fd5b3360009081526020818152604080832080547fffffffffffffffffffffffffffffffffffffffffffffffffffffffffffffff001660019081179091559091528120805434929061021c908490610292565b9250508190555034600260008282546102359190610292565b92505081905550346003600082825461024e9190610292565b9091555050565b60006020828403121561026757600080fd5b813573ffffffffffffffffffffffffffffffffffffffff8116811461028b57600080fd5b9392505050565b600082198211156102cc577f4e487b7100000000000000000000000000000000000000000000000000000000600052601160045260246000fd5b50019056fea2646970667358221220ec2e966135a4e9e810a9c88ffff393f071bd7a50001e27f760bc290928ccb4b964736f6c637822302e382e352d63692e323032312e352e31302b636f6d6d69742e36343331343065320053",
  "immutableReferences": {},
  "source": "// SPDX-License-Identifier: MIT\npragma solidity ^0.8.4;\n\n/**\n * DAO contract:\n * 1. Collects investors money (ether)\n * 2. Keep track of investor contributions with shares\n * 3. Allow investors to transfer shares\n * 4. allow investment proposals to be created and voted\n * 5. execute successful investment proposals (i.e send money)\n */\n\ncontract DAO2 {\n  mapping(address => bool) public investors;\n\n\n  //   investors[0xAddress1] = true; // Address1 is an investor\n  // investors[0xAddress2] = true; // Address2 is an investor\n  // investors[0xAddress3] = false; // Address3 is not an investor\n  // investors[0xAddress4] = true; // Address4 is an investor\n\n\n  mapping(address => uint) public shares;\n\n\n//   shares[0xInvestor1] = 1000; // Investor1 holds 1000 shares\n// shares[0xInvestor2] = 500; // Investor2 holds 500 shares\n// shares[0xInvestor3] = 2000; // Investor3 holds 2000 shares\n// shares[0xInvestor4] = 250; // Investor4 holds 250 shares\n\n\n  uint public totalShares;\n  uint public availableFunds;\n  uint public contributionEnd;\n\n  constructor(uint contributionTime)  {\n    contributionEnd = block.timestamp + contributionTime;\n  }\n\n  function contribute() payable external {\n    require(block.timestamp < contributionEnd, 'cannot contribute after contributionEnd');\n    investors[msg.sender] = true;\n    shares[msg.sender] += msg.value;\n    totalShares += msg.value;\n    availableFunds += msg.value;\n  }\n}\n",
  "sourcePath": "/Users/charry/nft/eattheblocks/dapp-30/day15-dao/sc/contracts/DAO-partII.sol",
  "compiler": {
    "name": "solc",
    "version": "0.8.5-ci.2021.5.10+commit.643140e2.Emscripten.clang"
  },
  "schemaVersion": "3.4.14",
  "updatedAt": "2023-10-19T19:27:27.097Z",
  "devdoc": {
    "kind": "dev",
    "methods": {},
    "version": 1
  },
  "userdoc": {
    "kind": "user",
    "methods": {},
    "notice": "DAO contract: 1. Collects investors money (ether) 2. Keep track of investor contributions with shares 3. Allow investors to transfer shares 4. allow investment proposals to be created and voted 5. execute successful investment proposals (i.e send money)",
    "version": 1
  }
}