{
  "contractName": "DAO3",
  "abi": [
    {
      "inputs": [
        {
          "internalType": "uint256",
          "name": "contributionTime",
          "type": "uint256"
        }
      ],
      "stateMutability": "nonpayable",
      "type": "constructor"
    },
    {
      "inputs": [],
      "name": "availableFunds",
      "outputs": [
        {
          "internalType": "uint256",
          "name": "",
          "type": "uint256"
        }
      ],
      "stateMutability": "view",
      "type": "function"
    },
    {
      "inputs": [],
      "name": "contributionEnd",
      "outputs": [
        {
          "internalType": "uint256",
          "name": "",
          "type": "uint256"
        }
      ],
      "stateMutability": "view",
      "type": "function"
    },
    {
      "inputs": [
        {
          "internalType": "address",
          "name": "",
          "type": "address"
        }
      ],
      "name": "investors",
      "outputs": [
        {
          "internalType": "bool",
          "name": "",
          "type": "bool"
        }
      ],
      "stateMutability": "view",
      "type": "function"
    },
    {
      "inputs": [
        {
          "internalType": "address",
          "name": "",
          "type": "address"
        }
      ],
      "name": "shares",
      "outputs": [
        {
          "internalType": "uint256",
          "name": "",
          "type": "uint256"
        }
      ],
      "stateMutability": "view",
      "type": "function"
    },
    {
      "inputs": [],
      "name": "totalShares",
      "outputs": [
        {
          "internalType": "uint256",
          "name": "",
          "type": "uint256"
        }
      ],
      "stateMutability": "view",
      "type": "function"
    },
    {
      "inputs": [],
      "name": "contribute",
      "outputs": [],
      "stateMutability": "payable",
      "type": "function"
    },
    {
      "inputs": [
        {
          "internalType": "uint256",
          "name": "amount",
          "type": "uint256"
        }
      ],
      "name": "redeemShare",
      "outputs": [],
      "stateMutability": "nonpayable",
      "type": "function"
    },
    {
      "inputs": [
        {
          "internalType": "uint256",
          "name": "amount",
          "type": "uint256"
        },
        {
          "internalType": "address",
          "name": "to",
          "type": "address"
        }
      ],
      "name": "transferShare",
      "outputs": [],
      "stateMutability": "nonpayable",
      "type": "function"
    }
  ],
  "bytecode": "0x608060405234801561001057600080fd5b5060405161065638038061065683398101604081905261002f91610042565b610039814261005b565b60045550610081565b60006020828403121561005457600080fd5b5051919050565b6000821982111561007c57634e487b7160e01b600052601160045260246000fd5b500190565b6105c6806100906000396000f3fe60806040526004361061007b5760003560e01c8063868643df1161004e578063868643df14610121578063ce7c2ac214610141578063d151b5161461016e578063d7bb99ba1461018457600080fd5b8063039383e6146100805780633a98ef39146100a257806346fcff4c146100cb5780636f7bc9be146100e1575b600080fd5b34801561008c57600080fd5b506100a061009b3660046104e6565b61018c565b005b3480156100ae57600080fd5b506100b860025481565b6040519081526020015b60405180910390f35b3480156100d757600080fd5b506100b860035481565b3480156100ed57600080fd5b506101116100fc3660046104ab565b60006020819052908152604090205460ff1681565b60405190151581526020016100c2565b34801561012d57600080fd5b506100a061013c3660046104cd565b610280565b34801561014d57600080fd5b506100b861015c3660046104ab565b60016020526000908152604090205481565b34801561017a57600080fd5b506100b860045481565b6100a061039f565b336000908152600160205260409020548211156101f05760405162461bcd60e51b815260206004820152601160248201527f6e6f7420656e6f7567682073686172657300000000000000000000000000000060448201526064015b60405180910390fd5b336000908152600160205260408120805484929061020f90849061052a565b909155505073ffffffffffffffffffffffffffffffffffffffff811660009081526001602052604081208054849290610249908490610512565b909155505073ffffffffffffffffffffffffffffffffffffffff166000908152602081905260409020805460ff1916600117905550565b336000908152600160205260409020548111156102df5760405162461bcd60e51b815260206004820152601160248201527f6e6f7420656e6f7567682073686172657300000000000000000000000000000060448201526064016101e7565b8060035410156103315760405162461bcd60e51b815260206004820152601a60248201527f6e6f7420656e6f75676820617661696c61626c652066756e647300000000000060448201526064016101e7565b336000908152600160205260408120805483929061035090849061052a565b925050819055508060036000828254610369919061052a565b9091555050604051339082156108fc029083906000818181858888f1935050505015801561039b573d6000803e3d6000fd5b5050565b60045442106104165760405162461bcd60e51b815260206004820152602760248201527f63616e6e6f7420636f6e7472696275746520616674657220636f6e747269627560448201527f74696f6e456e640000000000000000000000000000000000000000000000000060648201526084016101e7565b33600090815260208181526040808320805460ff1916600190811790915590915281208054349290610449908490610512565b9250508190555034600260008282546104629190610512565b92505081905550346003600082825461047b9190610512565b9091555050565b803573ffffffffffffffffffffffffffffffffffffffff811681146104a657600080fd5b919050565b6000602082840312156104bd57600080fd5b6104c682610482565b9392505050565b6000602082840312156104df57600080fd5b5035919050565b600080604083850312156104f957600080fd5b8235915061050960208401610482565b90509250929050565b6000821982111561052557610525610541565b500190565b60008282101561053c5761053c610541565b500390565b7f4e487b7100000000000000000000000000000000000000000000000000000000600052601160045260246000fdfea26469706673582212206e5e1aeaae57a9aac79dc795305ac9a523090f62807c26b335fb6d8a1bd9e3a164736f6c637822302e382e352d63692e323032312e352e31302b636f6d6d69742e36343331343065320053",
  "immutableReferences": {},
  "source": "// SPDX-License-Identifier: MIT\npragma solidity ^0.8.4;\n\n/**\n * DAO contract:\n * 1. Collects investors money (ether)\n * 2. Keep track of investor contributions with shares\n * 3. Allow investors to transfer shares\n * 4. allow investment proposals to be created and voted\n * 5. execute successful investment proposals (i.e send money)\n */\n\ncontract DAO3 {\n  mapping(address => bool) public investors;\n  mapping(address => uint) public shares;\n  uint public totalShares;\n  uint public availableFunds;\n  uint public contributionEnd;\n\n  constructor(uint contributionTime)  {\n    contributionEnd = block.timestamp + contributionTime;\n  }\n\n  function contribute() payable external {\n    require(block.timestamp < contributionEnd, 'cannot contribute after contributionEnd');\n    investors[msg.sender] = true;\n    shares[msg.sender] += msg.value;\n    totalShares += msg.value;\n    availableFunds += msg.value;\n  }\n\n  function redeemShare(uint amount) external {\n    require(shares[msg.sender] >= amount, 'not enough shares');\n    require(availableFunds >= amount, 'not enough available funds');\n    shares[msg.sender] -= amount;\n    availableFunds -= amount;\n    payable(msg.sender).transfer(amount);\n  }\n    \n  function transferShare(uint amount, address to) external {\n    require(shares[msg.sender] >= amount, 'not enough shares');\n    shares[msg.sender] -= amount;\n    shares[to] += amount;\n    investors[to] = true;\n  }\n}\n",
  "sourcePath": "/Users/charry/nft/eattheblocks/dapp-30/day15-dao/sc/contracts/DAO-partIII.sol",
  "compiler": {
    "name": "solc",
    "version": "0.8.5-ci.2021.5.10+commit.643140e2.Emscripten.clang"
  },
  "schemaVersion": "3.4.14",
  "updatedAt": "2023-10-19T19:27:03.357Z",
  "devdoc": {
    "kind": "dev",
    "methods": {},
    "version": 1
  },
  "userdoc": {
    "kind": "user",
    "methods": {},
    "notice": "DAO contract: 1. Collects investors money (ether) 2. Keep track of investor contributions with shares 3. Allow investors to transfer shares 4. allow investment proposals to be created and voted 5. execute successful investment proposals (i.e send money)",
    "version": 1
  }
}