{
  "contractName": "DAO4",
  "abi": [
    {
      "inputs": [
        {
          "internalType": "uint256",
          "name": "contributionTime",
          "type": "uint256"
        },
        {
          "internalType": "uint256",
          "name": "_voteTime",
          "type": "uint256"
        },
        {
          "internalType": "uint256",
          "name": "_quorum",
          "type": "uint256"
        }
      ],
      "stateMutability": "nonpayable",
      "type": "constructor"
    },
    {
      "inputs": [],
      "name": "admin",
      "outputs": [
        {
          "internalType": "address",
          "name": "",
          "type": "address"
        }
      ],
      "stateMutability": "view",
      "type": "function"
    },
    {
      "inputs": [],
      "name": "availableFunds",
      "outputs": [
        {
          "internalType": "uint256",
          "name": "",
          "type": "uint256"
        }
      ],
      "stateMutability": "view",
      "type": "function"
    },
    {
      "inputs": [],
      "name": "contributionEnd",
      "outputs": [
        {
          "internalType": "uint256",
          "name": "",
          "type": "uint256"
        }
      ],
      "stateMutability": "view",
      "type": "function"
    },
    {
      "inputs": [
        {
          "internalType": "address",
          "name": "",
          "type": "address"
        }
      ],
      "name": "investors",
      "outputs": [
        {
          "internalType": "bool",
          "name": "",
          "type": "bool"
        }
      ],
      "stateMutability": "view",
      "type": "function"
    },
    {
      "inputs": [],
      "name": "nextProposalId",
      "outputs": [
        {
          "internalType": "uint256",
          "name": "",
          "type": "uint256"
        }
      ],
      "stateMutability": "view",
      "type": "function"
    },
    {
      "inputs": [
        {
          "internalType": "uint256",
          "name": "",
          "type": "uint256"
        }
      ],
      "name": "proposals",
      "outputs": [
        {
          "internalType": "uint256",
          "name": "id",
          "type": "uint256"
        },
        {
          "internalType": "string",
          "name": "name",
          "type": "string"
        },
        {
          "internalType": "uint256",
          "name": "amount",
          "type": "uint256"
        },
        {
          "internalType": "address payable",
          "name": "recipient",
          "type": "address"
        },
        {
          "internalType": "uint256",
          "name": "votes",
          "type": "uint256"
        },
        {
          "internalType": "uint256",
          "name": "end",
          "type": "uint256"
        },
        {
          "internalType": "bool",
          "name": "executed",
          "type": "bool"
        }
      ],
      "stateMutability": "view",
      "type": "function"
    },
    {
      "inputs": [],
      "name": "quorum",
      "outputs": [
        {
          "internalType": "uint256",
          "name": "",
          "type": "uint256"
        }
      ],
      "stateMutability": "view",
      "type": "function"
    },
    {
      "inputs": [
        {
          "internalType": "address",
          "name": "",
          "type": "address"
        }
      ],
      "name": "shares",
      "outputs": [
        {
          "internalType": "uint256",
          "name": "",
          "type": "uint256"
        }
      ],
      "stateMutability": "view",
      "type": "function"
    },
    {
      "inputs": [],
      "name": "totalShares",
      "outputs": [
        {
          "internalType": "uint256",
          "name": "",
          "type": "uint256"
        }
      ],
      "stateMutability": "view",
      "type": "function"
    },
    {
      "inputs": [],
      "name": "voteTime",
      "outputs": [
        {
          "internalType": "uint256",
          "name": "",
          "type": "uint256"
        }
      ],
      "stateMutability": "view",
      "type": "function"
    },
    {
      "inputs": [
        {
          "internalType": "address",
          "name": "",
          "type": "address"
        },
        {
          "internalType": "uint256",
          "name": "",
          "type": "uint256"
        }
      ],
      "name": "votes",
      "outputs": [
        {
          "internalType": "bool",
          "name": "",
          "type": "bool"
        }
      ],
      "stateMutability": "view",
      "type": "function"
    },
    {
      "inputs": [],
      "name": "contribute",
      "outputs": [],
      "stateMutability": "payable",
      "type": "function"
    },
    {
      "inputs": [
        {
          "internalType": "uint256",
          "name": "amount",
          "type": "uint256"
        }
      ],
      "name": "redeemShare",
      "outputs": [],
      "stateMutability": "nonpayable",
      "type": "function"
    },
    {
      "inputs": [
        {
          "internalType": "uint256",
          "name": "amount",
          "type": "uint256"
        },
        {
          "internalType": "address",
          "name": "to",
          "type": "address"
        }
      ],
      "name": "transferShare",
      "outputs": [],
      "stateMutability": "nonpayable",
      "type": "function"
    },
    {
      "inputs": [
        {
          "internalType": "string",
          "name": "name",
          "type": "string"
        },
        {
          "internalType": "uint256",
          "name": "amount",
          "type": "uint256"
        },
        {
          "internalType": "address payable",
          "name": "recipient",
          "type": "address"
        }
      ],
      "name": "createProposal",
      "outputs": [],
      "stateMutability": "nonpayable",
      "type": "function"
    },
    {
      "inputs": [
        {
          "internalType": "uint256",
          "name": "proposalId",
          "type": "uint256"
        }
      ],
      "name": "vote",
      "outputs": [],
      "stateMutability": "nonpayable",
      "type": "function"
    }
  ],
  "bytecode": "0x608060405234801561001057600080fd5b50604051610ffc380380610ffc83398101604081905261002f916100bd565b60008111801561003f5750606481105b61008f5760405162461bcd60e51b815260206004820181905260248201527f71756f72756d206d757374206265206265747765656e203020616e6420313030604482015260640160405180910390fd5b61009983426100eb565b60065560089190915560095550600a80546001600160a01b03191633179055610111565b6000806000606084860312156100d257600080fd5b8351925060208401519150604084015190509250925092565b6000821982111561010c57634e487b7160e01b600052601160045260246000fd5b500190565b610edc806101206000396000f3fe6080604052600436106100f35760003560e01c80636f7bc9be1161008a578063ce7c2ac211610059578063ce7c2ac2146102ad578063d151b516146102da578063d7bb99ba146102f0578063f851a440146102f857600080fd5b80636f7bc9be146101fc578063868643df1461023c5780639f2524ee1461025c578063bcf93dd61461029757600080fd5b80632ab09d14116100c65780632ab09d141461019a5780633a98ef39146101b057806346fcff4c146101c65780636ac1e01f146101dc57600080fd5b80630121b93f146100f8578063013cf08b1461011a578063039383e6146101565780631703a01814610176575b600080fd5b34801561010457600080fd5b50610118610113366004610ca1565b61034a565b005b34801561012657600080fd5b5061013a610135366004610ca1565b610517565b60405161014d9796959493929190610cea565b60405180910390f35b34801561016257600080fd5b50610118610171366004610cba565b6105f5565b34801561018257600080fd5b5061018c60095481565b60405190815260200161014d565b3480156101a657600080fd5b5061018c60075481565b3480156101bc57600080fd5b5061018c60045481565b3480156101d257600080fd5b5061018c60055481565b3480156101e857600080fd5b506101186101f7366004610bd6565b6106e4565b34801561020857600080fd5b5061022c610217366004610b86565b60006020819052908152604090205460ff1681565b604051901515815260200161014d565b34801561024857600080fd5b50610118610257366004610ca1565b6108db565b34801561026857600080fd5b5061022c610277366004610baa565b600260209081526000928352604080842090915290825290205460ff1681565b3480156102a357600080fd5b5061018c60085481565b3480156102b957600080fd5b5061018c6102c8366004610b86565b60016020526000908152604090205481565b3480156102e657600080fd5b5061018c60065481565b6101186109fa565b34801561030457600080fd5b50600a546103259073ffffffffffffffffffffffffffffffffffffffff1681565b60405173ffffffffffffffffffffffffffffffffffffffff909116815260200161014d565b3360009081526020819052604090205460ff1615156001146103b35760405162461bcd60e51b815260206004820152600e60248201527f6f6e6c7920696e766573746f727300000000000000000000000000000000000060448201526064015b60405180910390fd5b6000818152600360209081526040808320338452600283528184208585529092529091205460ff161561044e5760405162461bcd60e51b815260206004820152602a60248201527f696e766573746f722063616e206f6e6c7920766f7465206f6e636520666f722060448201527f612070726f706f73616c0000000000000000000000000000000000000000000060648201526084016103aa565b806005015442106104c75760405162461bcd60e51b815260206004820152602560248201527f63616e206f6e6c7920766f746520756e74696c2070726f706f73616c20656e6460448201527f206461746500000000000000000000000000000000000000000000000000000060648201526084016103aa565b3360008181526002602090815260408083208684528252808320805460ff19166001908117909155938352929052908120546004830180549192909161050e908490610d92565b90915550505050565b6003602052600090815260409020805460018201805491929161053990610dc1565b80601f016020809104026020016040519081016040528092919081815260200182805461056590610dc1565b80156105b25780601f10610587576101008083540402835291602001916105b2565b820191906000526020600020905b81548152906001019060200180831161059557829003601f168201915b50505060028401546003850154600486015460058701546006909701549596929573ffffffffffffffffffffffffffffffffffffffff9092169450925060ff1687565b336000908152600160205260409020548211156106545760405162461bcd60e51b815260206004820152601160248201527f6e6f7420656e6f7567682073686172657300000000000000000000000000000060448201526064016103aa565b3360009081526001602052604081208054849290610673908490610daa565b909155505073ffffffffffffffffffffffffffffffffffffffff8116600090815260016020526040812080548492906106ad908490610d92565b909155505073ffffffffffffffffffffffffffffffffffffffff166000908152602081905260409020805460ff1916600117905550565b3360009081526020819052604090205460ff1615156001146107485760405162461bcd60e51b815260206004820152600e60248201527f6f6e6c7920696e766573746f727300000000000000000000000000000000000060448201526064016103aa565b81600554101561079a5760405162461bcd60e51b815260206004820152600e60248201527f616d6f756e7420746f6f2062696700000000000000000000000000000000000060448201526064016103aa565b6040518060e0016040528060075481526020018481526020018381526020018273ffffffffffffffffffffffffffffffffffffffff16815260200160008152602001600854426107ea9190610d92565b8152600060209182018190526007548152600382526040902082518155828201518051919261082192600185019290910190610add565b506040820151600282015560608201516003820180547fffffffffffffffffffffffff00000000000000000000000000000000000000001673ffffffffffffffffffffffffffffffffffffffff9092169190911790556080820151600482015560a082015160058083019190915560c0909201516006909101805460ff191691151591909117905580548391906000906108bc908490610daa565b9091555050600780549060006108d183610dfc565b9190505550505050565b3360009081526001602052604090205481111561093a5760405162461bcd60e51b815260206004820152601160248201527f6e6f7420656e6f7567682073686172657300000000000000000000000000000060448201526064016103aa565b80600554101561098c5760405162461bcd60e51b815260206004820152601a60248201527f6e6f7420656e6f75676820617661696c61626c652066756e647300000000000060448201526064016103aa565b33600090815260016020526040812080548392906109ab908490610daa565b9250508190555080600560008282546109c49190610daa565b9091555050604051339082156108fc029083906000818181858888f193505050501580156109f6573d6000803e3d6000fd5b5050565b6006544210610a715760405162461bcd60e51b815260206004820152602760248201527f63616e6e6f7420636f6e7472696275746520616674657220636f6e747269627560448201527f74696f6e456e640000000000000000000000000000000000000000000000000060648201526084016103aa565b33600090815260208181526040808320805460ff1916600190811790915590915281208054349290610aa4908490610d92565b925050819055503460046000828254610abd9190610d92565b925050819055503460056000828254610ad69190610d92565b9091555050565b828054610ae990610dc1565b90600052602060002090601f016020900481019282610b0b5760008555610b51565b82601f10610b2457805160ff1916838001178555610b51565b82800160010185558215610b51579182015b82811115610b51578251825591602001919060010190610b36565b50610b5d929150610b61565b5090565b5b80821115610b5d5760008155600101610b62565b8035610b8181610e61565b919050565b600060208284031215610b9857600080fd5b8135610ba381610e61565b9392505050565b60008060408385031215610bbd57600080fd5b8235610bc881610e61565b946020939093013593505050565b600080600060608486031215610beb57600080fd5b833567ffffffffffffffff80821115610c0357600080fd5b818601915086601f830112610c1757600080fd5b813581811115610c2957610c29610e4b565b604051601f8201601f19908116603f01168101908382118183101715610c5157610c51610e4b565b81604052828152896020848701011115610c6a57600080fd5b82602086016020830137600060208483010152809750505050505060208401359150610c9860408501610b76565b90509250925092565b600060208284031215610cb357600080fd5b5035919050565b60008060408385031215610ccd57600080fd5b823591506020830135610cdf81610e61565b809150509250929050565b8781526000602060e08184015288518060e085015260005b81811015610d1f578a810183015185820161010001528201610d02565b81811115610d3257600061010083870101525b506040840189905273ffffffffffffffffffffffffffffffffffffffff88166060850152601f01601f19168301610100019150610d6c9050565b8460808301528360a0830152610d8660c083018415159052565b98975050505050505050565b60008219821115610da557610da5610e35565b500190565b600082821015610dbc57610dbc610e35565b500390565b600181811c90821680610dd557607f821691505b60208210811415610df657634e487b7160e01b600052602260045260246000fd5b50919050565b60007fffffffffffffffffffffffffffffffffffffffffffffffffffffffffffffffff821415610e2e57610e2e610e35565b5060010190565b634e487b7160e01b600052601160045260246000fd5b634e487b7160e01b600052604160045260246000fd5b73ffffffffffffffffffffffffffffffffffffffff81168114610e8357600080fd5b5056fea2646970667358221220dac4d318dfdf3e4984150e0296818f53cade723c2278ce6e99e0a9e3c847246464736f6c637822302e382e352d63692e323032312e352e31302b636f6d6d69742e36343331343065320053",
  "immutableReferences": {},
  "source": "// SPDX-License-Identifier: MIT\npragma solidity ^0.8.4;\n\n/**\n * DAO contract:\n * 1. Collects investors money (ether)\n * 2. Keep track of investor contributions with shares\n * 3. Allow investors to transfer shares\n * 4. allow investment proposals to be created and voted\n * 5. execute successful investment proposals (i.e send money)\n */\n\ncontract DAO4 {\n  struct Proposal {\n    uint id;\n    string name;\n    uint amount;\n    address payable recipient;\n    uint votes;\n    uint end;\n    bool executed;\n  }\n\n  mapping(address => bool) public investors;\n  mapping(address => uint) public shares;\n  mapping(address => mapping(uint => bool)) public votes;\n  mapping(uint => Proposal) public proposals;\n  uint public totalShares;\n  uint public availableFunds;\n  uint public contributionEnd;\n  uint public nextProposalId;\n  uint public voteTime;\n  uint public quorum;\n  address public admin;\n\n  constructor(\n    uint contributionTime, \n    uint _voteTime,\n    uint _quorum) \n     {\n    require(_quorum > 0 && _quorum < 100, 'quorum must be between 0 and 100');\n    contributionEnd = block.timestamp + contributionTime;\n    voteTime = _voteTime;\n    quorum = _quorum;\n    admin = msg.sender;\n  }\n\n  function contribute() payable external {\n    require(block.timestamp < contributionEnd, 'cannot contribute after contributionEnd');\n    investors[msg.sender] = true;\n    shares[msg.sender] += msg.value;\n    totalShares += msg.value;\n    availableFunds += msg.value;\n  }\n\n  function redeemShare(uint amount) external {\n    require(shares[msg.sender] >= amount, 'not enough shares');\n    require(availableFunds >= amount, 'not enough available funds');\n    shares[msg.sender] -= amount;\n    availableFunds -= amount;\n    payable(msg.sender).transfer(amount);\n  }\n    \n  function transferShare(uint amount, address to) external {\n    require(shares[msg.sender] >= amount, 'not enough shares');\n    shares[msg.sender] -= amount;\n    shares[to] += amount;\n    investors[to] = true;\n  }\n\n  function createProposal(\n    string memory name,\n    uint amount,\n    address payable recipient) \n    public \n    onlyInvestors() {\n    require(availableFunds >= amount, 'amount too big');\n    proposals[nextProposalId] = Proposal(\n      nextProposalId,\n      name,\n      amount,\n      recipient,\n      0,\n      block.timestamp + voteTime,\n      false\n    );\n    availableFunds -= amount;\n    nextProposalId++;\n  }\n\n  function vote(uint proposalId) external onlyInvestors() {\n    Proposal storage proposal = proposals[proposalId];\n    require(votes[msg.sender][proposalId] == false, 'investor can only vote once for a proposal');\n    require(block.timestamp < proposal.end, 'can only vote until proposal end date');\n    votes[msg.sender][proposalId] = true;\n    proposal.votes += shares[msg.sender];\n  }\n\n  modifier onlyInvestors() {\n     require(investors[msg.sender] == true, 'only investors');\n     _;\n  }\n}\n",
  "sourcePath": "/Users/charry/nft/eattheblocks/dapp-30/day15-dao/sc/contracts/DAO-partIV.sol",
  "compiler": {
    "name": "solc",
    "version": "0.8.5-ci.2021.5.10+commit.643140e2.Emscripten.clang"
  },
  "schemaVersion": "3.4.14",
  "updatedAt": "2023-10-19T19:27:03.358Z",
  "devdoc": {
    "kind": "dev",
    "methods": {},
    "version": 1
  },
  "userdoc": {
    "kind": "user",
    "methods": {},
    "notice": "DAO contract: 1. Collects investors money (ether) 2. Keep track of investor contributions with shares 3. Allow investors to transfer shares 4. allow investment proposals to be created and voted 5. execute successful investment proposals (i.e send money)",
    "version": 1
  }
}